:100000000C943C000C9400000C9400000C94000034
:100010000C9400000C9400000C9400000C94000060
:100020000C9400000C9400000C9400000C94000050
:100030000C9400000C9400000C9400000C94000040
:100040000C9400000C9400000C9400000C94000030
:100050000C9400001027E80364000A00010000105F
:1000600000011000010080C02532780025630000E7
:100070000200600166000000F894EE27ECBBF1E09E
:10008000FBBFEBBFE5BFF8E1F1BDE1BD8DE0A2E054
:10009000BB27ED938A95E9F780E094E0A0E6ED9325
:1000A0000197E9F7E0E7F0E085919591009761F01D
:1000B000A591B59105901590BF01F00105900D92A5
:1000C0000197E1F7FB01F0CFEFE5EDBFE4E0EEBF14
:1000D000C0E6D1E00C946C006497E0E0EBBBEFE08D
:1000E000EABBE0E0E8BBE7BBE5BBE4BBE2BBE1BBEE
:1000F000E3BFE2BFECBFEFBDEEBDEDBDECBDE7BDC4
:10010000E6BDEBBDEABDE9BDE8BDE2BDE5BDE4BDD0
:10011000E3BDE5BFE4BFE9BFE0E8E8B9E0E0E0BF88
:10012000E4E1EA930E9419030E94D502EEEF0E94D7
:10013000500319B3E0E00E945703E8E6F0E00E94A4
:10014000600384E00E946903EE3E11F401E307C0FE
:10015000EE3D11F402E303C0EE3B09F403E3EDEFDF
:100160000E94500319B3EAE00E945703E8E6F0E06A
:100170000E94600384E00E946903ED3E11F404E3F1
:1001800007C0ED3D11F405E303C0ED3B09F406E3C0
:10019000EBEF0E94500319B3E0E00E947303E8E61E
:1001A000F0E00E94600384E00E946903EB3E11F4DA
:1001B00007E307C0EB3D11F408E303C0EB3B09F490
:1001C00009E3E7EF0E94500319B3EAE00E947303CA
:1001D000E8E6F0E00E94600384E00E946903E73EE5
:1001E00011F40AE207C0E73D11F400E303C0E73B66
:1001F00009F403E2EFE00E947303ECE6F0E0FA9307
:10020000EA93E02FFF27662777270E94E50384E023
:100210000E9464022896FE01FA93EA930E94FF026C
:1002200085CF6496FFCF5F9BFECFECB108955D9BB9
:10023000FECFE881ECB921960895A881B9810E948A
:10024000D703309751F00E94D7033196ED93FC937A
:100250003197DF01EA81EC9304C0EA81EA930E94BE
:1002600017012396089526970E94EA0300E0E88983
:10027000F9893196E88BF98B3197E4913E2FE03084
:1002800011F40C946002E02FE03039F4353211F4AF
:1002900001E002C00E947C0312C1E130B1F43532AA
:1002A00021F40E947C0300E00AC102E050E010E06B
:1002B0003D3211F411E003C13B3211F45BE2FFC0A7
:1002C000303211F450E2FBC002C0E23039F440E0B9
:1002D00003E0303311F41068F2C004C0E33011F0D1
:1002E0000C945F02303310F03A3308F009C0A42FA9
:1002F000EAE0EA9FE02D4E2FE32FE0534E0FDFC0E0
:10030000E32FE33631F40E948303EC910E948A03C9
:10031000D5C0E33741F40E9483030E9491030E94F9
:10032000AE030E2F0AC0E03761F40E9483030E94DF
:1003300091030E94B8030E2F186012601F7720E00F
:1003400038C0E43611F0E93611F4146002C0E53724
:1003500031F4E4E5F0E0EE83FF8305E00DC0E8351D
:1003600011F4186004C0E83711F00C945E02EEE559
:10037000F0E0EE83FF8304E012FF15C00E948303C8
:100380000E94D703EA87FB87AA85BB8510972CF4C8
:100390000E94D303EA87FB875DE2503011F00F5FC4
:1003A00001C01B7F06C00E9483030E94D703EA8717
:1003B000FB8710FD11C0041778F417FF08C012FF67
:1003C00004C01B7F352F015001C030E301C030E273
:1003D0000E947C034150EFCF202F11FF1AC0203024
:1003E000B9F013FF08C0EE81FF813196EE83FF83E1
:1003F0003197E49105C0AE81BF81ED91AE83BF839B
:10040000EA930E949803403009F041502150E7CF11
:100410004CC030E3EE81FF813296EE83FF8332974A
:100420000E94E103E887F987AA85BB85AE17BF075D
:1004300020F03F5FAE1BBF0BC9F7AA87BB87E9E37C
:10044000E31728F413FF02C0395F01C0395D14FDC2
:100450001EC0E0E3E31730F0A885B985A130E0E0E5
:10046000BE0711F410610AC0421710F010FF01C05E
:1004700013C030E217FF0BC030E3106112FF07C05A
:100480001B7F5A930E949803403009F041500E940C
:100490007C03403009F041502150A885B985E1E046
:1004A000F0E0EA17FB0708F4B4CF10FF07C04030B4
:1004B00029F04150E0E20E948A03F9CF00E0D7CE54
:1004C0000E94F10362960895F82E22971A930A93D8
:1004D000DE010E94CF030A2F1B2FDE0116960E9419
:1004E000CF030E94D703EA83FB83DE0114960E94A8
:1004F000CF030E94D703FA93EA931A930A93FE015B
:100500003696FA93EA930E943301AA81BB81E0E018
:10051000EC931981088124960895A7B3AF70A7BB07
:10052000C19AC09811D0C29A0FD0A6B3C2980CD06D
:10053000C29A0AD0C298A7FDF5CF0895A07FAB2B31
:10054000A8BBC29A01D0C298FFE0FA95F1F70895CE
:10055000C198A7B3A76FA7BBB8B3BF70A881EEDFE0
:10056000A881A295EBDFC19A21960895C29AECDF8B
:10057000E6B3C298E9DFE07F0895E6DFF7DFAE2F4C
:10058000F5DFC198E295EA2B08950E948D02E8817B
:10059000F0E0E05AFE4FE081A981EA0FEA930E9461
:1005A000A80249805880229608950E948D02E2E0B8
:1005B0000E949E03ECE00E949E03E1E0EA930E9409
:1005C000A802E0E05E2E4E2E0895EF93FF93A881DF
:1005D0006894AA3021F0E8944394641438F4539456
:1005E000E0E0EA935A920E94C5022EF096DFC09A8C
:1005F000A881AA93ADDFFF91EF9121960895F9812B
:10060000E881A191AA2319F0AA93DFDFFACF2296FD
:100610000895AA27BB271197F1F70895C198A7B3AA
:10062000A76FA7BBB8B3BF70A88188DFC19A219616
:100630000895C298C0986880E881E058E09362010C
:10064000E881E054E09363010E94A3030E94A303A6
:100650000E94A3030E940903E0E2EA930E940E03B2
:100660000E940903E8E20E94A903E4E00E94A903B2
:10067000E5E80E94A903A7B3AF70A7BBC19A0E9487
:10068000BD02E53011F0E0E009C00E948D02E6E015
:10069000EA930E94A8020E94D502E1E02196089503
:1006A000EBBBEAE0F0E0FA93EA930C94C303EA931D
:1006B000E0E0EA930E94C502FE01FA93EA930895EE
:1006C000FA93EA93E12FFF27662777270E94E50335
:1006D00008950E9464022896FE01FA93EA930E940C
:1006E000FF02E12F0895EA93E1E0EA930E94C50238
:1006F000FE01FA93EA9308953A93ED85FE85FA9305
:10070000EA930C941D01AE85BF851497AE87BF8711
:1007100014960895EA93ED85FE85FA93EA930C9476
:100720001D010E94DB03EE83FF83FA93EA93089591
:10073000ED85FE85FA93EA930C941D01EA930E94DD
:10074000A8020C948D020E940903E0E3EA930C9442
:100750000E03EA930E94A8020C940903A991B9918F
:10076000EE27FF276D91662311F03196FBCF089598
:10077000AA27BB27E991F9910590002011F0119665
:10078000FBCFFD010895E991F991309639F088EE9B
:1007900093E00197F1F7A8953197C9F708950024E0
:1007A000AF0DB01D0895E095F09531960895ED9147
:1007B000FC9111970895ED91FD916D917C911397A6
:1007C00008950590F491E02D08957A936A93FA9331
:1007D000EA9308955A934A933A932A931A930A9361
:1007E00008955D814C813B812A811981088108959A
:00000001FF
