:0C0000000C94EE000C9400000C94000026
:10000C000C9400000C9400000C9400000C94000064
:10001C000C9400000C9400000C9400000C94000054
:10002C000C941E010C9400000C9456010C940000CE
:10003C000C9400000C9400000C9400000C94000034
:10004C000C9400000C9400000D6120697320726503
:10005C00636569766564000D62206973207265635F
:10006C006569766564000D6320697320726563654C
:10007C0069766564000D6420697320726563656937
:10008C00766564000D652069732072656365697619
:10009C006564000D66206973207265636569766519
:1000AC0064000D6720697320726563656976656409
:1000BC00000D68206973207265636569766564005C
:1000CC000D69206973207265636569766564000D3E
:1000DC006A206973207265636569766564000D6BCF
:1000EC00206973207265636569766564000D6C2008
:1000FC006973207265636569766564000D6D2069AE
:10010C0073207265636569766564000D6E20697392
:10011C00207265636569766564000D6F20697320D4
:10012C007265636569766564000D70206973207271
:10013C0065636569766564000D712069732072656D
:10014C00636569766564000D72206973207265635E
:10015C006569766564000D7320697320726563654B
:10016C0069766564000D7420697320726563656936
:10017C00766564000D752069732072656365697618
:10018C006564000D76206973207265636569766518
:10019C0064000D7720697320726563656976656408
:1001AC00000D78206973207265636569766564005B
:1001BC000D79206973207265636569766564000D3D
:1001CC007A20697320726563656976656400000046
:1001DC00F894EE27ECBBF1E0FBBFEBBFE5BFF8E119
:1001EC00F1BDE1BD8DE0A2E0BB27ED938A95E9F767
:1001FC0080E094E0A0E6ED930197E9F7EAEDF1E0F9
:10020C0085919591009761F0A591B5910590159008
:10021C00BF01F00105900D920197E1F7FB01F0CFC2
:10022C00EFE5EDBFE4E0EEBFC0E6D1E00C94870152
:10023C00AA93BA93EA93EFB7EA931A930A930BB182
:10024C001CB1E02FEC7189F4A42DB0E0A05ABE4F84
:10025C001C934394E8E0E41509F444246394E8E027
:10026C00E61519F46624689420F809911991E9911E
:10027C00EFBFE991B991A99118950A936620F1F312
:10028C00E52DF0E0E05AFE4F00815394E8E0E515CF
:10029C0009F45524F8946A947894E02F0991089500
:1002AC00EA93FA93EFB7EA93992061F09A94E82DC8
:1002BC00F0E0E859FE4FE081ECB98394E8E0E815F2
:1002CC0009F48824E991EFBFF991E9911895E8E0D8
:1002DC00E915E9F3F894992011F45D990DC0A72D57
:1002EC00B0E0A859BE4FE881EC937394E8E0E715B1
:1002FC0009F47724939402C0E881ECB978942196A0
:10030C000895E0E0EBBBEABBE8BBE7BBE5BBE4BBB5
:10031C00E2BBE1BBE3BFE2BFECBFEFBDEEBDEDBDA9
:10032C00ECBDE7BDE6BDEBBDEABDE9BDE8BDE2BD98
:10033C00E5BDE4BDE3BDE5BFE4BFE9BFEBB9E8ED66
:10034C00EAB9E6E8E0BDE0E0E0BDE9E1E9B9E0E802
:10035C00E8B9E0E0E0BF789490DF0E2FE02FE136B3
:10036C0011F0E13439F4E4E5F0E0FA93EA930E94F9
:10037C00DA0212C1E23611F0E23439F4E3E6F0E0CD
:10038C00FA93EA930E94DA0207C1E33611F0E334E0
:10039C0039F4E2E7F0E0FA93EA930E94DA02FCC047
:1003AC00E43611F0E43439F4E1E8F0E0FA93EA933E
:1003BC000E94DA02F1C0E53611F0E53439F4E0E9D7
:1003CC00F0E0FA93EA930E94DA02E6C0E63611F006
:1003DC00E63439F4EFE9F0E0FA93EA930E94DA029A
:1003EC00DBC0E73611F0E73439F4EEEAF0E0FA93CB
:1003FC00EA930E94DA02D0C0E83611F0E83439F4FE
:10040C00EDEBF0E0FA93EA930E94DA02C5C0E9360C
:10041C0011F0E93439F4ECECF0E0FA93EA930E9431
:10042C00DA02BAC0EA3611F0EA3439F4EBEDF0E056
:10043C00FA93EA930E94DA02AFC0EB3611F0EB3478
:10044C0039F4EAEEF0E0FA93EA930E94DA02A4C0DF
:10045C00EC3611F0EC3439F4E9EFF0E0FA93EA936E
:10046C000E94DA0299C0ED3611F0ED3439F4E8E06F
:10047C00F1E0FA93EA930E94DA028EC0EE3611F0A4
:10048C00EE3439F4E7E1F1E0FA93EA930E94DA02F0
:10049C0083C0EF3611F0EF3439F4E6E2F1E0FA9371
:1004AC00EA930E94DA0278C0E03711F0E03539F4B3
:1004BC00E5E3F1E0FA93EA930E94DA026DC0E137CA
:1004CC0011F0E13539F4E4E4F1E0FA93EA930E9497
:1004DC00DA0262C0E23711F0E23539F4E3E5F1E01B
:1004EC00FA93EA930E94DA0257C0E33711F0E3352E
:1004FC0039F4E2E6F1E0FA93EA930E94DA024CC096
:10050C00E43711F0E43539F4E1E7F1E0FA93EA93DA
:10051C000E94DA0241C0E53711F0E53539F4E0E824
:10052C00F1E0FA93EA930E94DA0236C0E63711F052
:10053C00E63539F4EFE8F1E0FA93EA930E94DA0237
:10054C002BC0E73711F0E73539F4EEE9F1E0FA9317
:10055C00EA930E94DA0220C0E83711F0E83539F44A
:10056C00EDEAF1E0FA93EA930E94DA0215C0E9375A
:10057C0011F0E93539F4ECEBF1E0FA93EA930E94CF
:10058C00DA020AC0EA3711F0EA3531F4EBECF1E0AB
:10059C00FA93EA930E94DA02E4E6F0E0FA93EA9323
:1005AC000E94EA02D9CEFFCFE991F9910590002083
:1005BC0031F0EF93FF9305D0FF91EF91F7CF6AE005
:1005CC00062E0A920C946D01E991F991309639F04E
:1005DC0088EE93E00197F1F7A8953197C9F7089544
:00000001FF
