:040000000C942B0031
:100004000C9400000C9400000C9400000C9400006C
:100014000C9400000C9400000C9400000C9400005C
:100024000C9400000C9400000C9400000C9400004C
:100034000C9400000C9400000C9400000C9400003C
:100044000C9400000C9400000C9400000C9400002C
:100054000000F894EE27ECBBF1E0FBBFEBBFE5BF7B
:10006400F8E1F1BDE1BD8DE0A2E0BB27ED938A95F7
:10007400E9F780E094E0A0E6ED930197E9F7E4E581
:10008400F0E085919591009761F0A591B591059067
:100094001590BF01F00105900D920197E1F7FB0166
:1000A400F0CFEFE5EDBFE4E0EEBFC0E6D1E00C94A5
:1000B4005B00E0E0EBBBEABBE8BBEFEFE7BBE0E0F3
:1000C400E5BBE4BBE2BBE1BBE3BFE2BFECBFEFBD1A
:1000D400EEBDEDBDECBDE7BDE6BDEBBDEABDE9BDE2
:1000E400E8BDE2BDE5BDE4BDE3BDE5BFE4BFE9BFF6
:1000F400E0E8E8B9E0E0E0BFE0B3E8BBFDCFFFCF64
:00000001FF
