:020000000C945E
:100002002B000C9400000C9400000C9400000C9443
:1000120000000C9400000C9400000C9400000C945E
:1000220000000C9400000C9400000C9400000C944E
:1000320000000C9400000C9400000C9400000C943E
:1000420000000C9400000C9400000C9400000C942E
:1000520000000000F894EE27ECBBF1E0FBBFEBBF21
:10006200E5BFF8E1F1BDE1BD8DE0A2E0BB27ED9374
:100072008A95E9F780E094E0A0E6ED930197E9F72D
:10008200E4E5F0E085919591009761F0A591B59135
:1000920005901590BF01F00105900D920197E1F7CF
:1000A200FB01F0CFEFE5EDBFE4E0EEBFC0E6D1E04B
:1000B2000C945B00E0E0EBBBEABBE8BBE1E0E7BB32
:1000C200E0E0E5BBE4BBE2BBE1BBE3BFE2BFECBF08
:1000D200EFBDEEBDEDBDECBDE7BDE6BDEBBDEABDDE
:1000E200E9BDE8BDE2BDE5BDE4BDE3BDE5BFE4BFFA
:1000F200E9BFE0E8E8B9E0E0E0BF989B04C0C09A3D
:100102006DD0C0986BD0999B0DC000E010E002301A
:10011200E0E01E073CF4C09A61D0C0985FD00F5F48
:100122001F4FF5CF9A9B0DC000E010E00330E0E0D6
:100132001E073CF4C09A52D0C09850D00F5F1F4F98
:10014200F5CF9B9B0DC000E010E00430E0E01E07FD
:100152003CF4C09A43D0C09841D00F5F1F4FF5CFF7
:100162009C9B0DC000E010E00530E0E01E073CF46F
:10017200C09A34D0C09832D00F5F1F4FF5CF9D9BED
:100182000DC000E010E00630E0E01E073CF4C09A2B
:1001920025D0C09823D00F5F1F4FF5CF9E9B0DC077
:1001A20000E010E00730E0E01E073CF4C09A16D0F1
:1001B200C09814D00F5F1F4FF5CF9F9B0DC000E07A
:1001C20010E00830E0E01E073CF4C09A07D0C09867
:1001D20005D00F5F1F4FF5CF90CFFFCFE4E6F0E0E1
:1001E200FA93EA930C94F500E991F991309639F07B
:1001F20088EE93E00197F1F7A8953197C9F7089532
:00000001FF
