:0A0000000C942B000C9400000C94EB
:10000A0000000C9400000C9400000C9400000C9466
:10001A0000000C9400000C9400000C9400000C9456
:10002A0000000C945B000C9400000C9482000C9469
:10003A0000000C9400000C9400000C9400000C9436
:10004A0000000C9400000C9400000000F894EE27C5
:10005A00ECBBF1E0FBBFEBBFE5BFF8E1F1BDE1BDF1
:10006A008DE0A2E0BB27ED938A95E9F780E094E062
:10007A00A0E6ED930197E9F7E4E5F0E08591959123
:10008A00009761F0A591B59105901590BF01F00117
:10009A0005900D920197E1F7FB01F0CFEFE5EDBF77
:1000AA00E4E0EEBFC0E6D1E00C94B300AA93BA93A1
:1000BA00EA93EFB7EA931A930A930BB11CB1E02FB4
:1000CA00EC7189F4A42DB0E0A05ABE4F1C9343945E
:1000DA00E8E0E41509F444246394E8E0E61519F429
:1000EA006624689420F809911991E991EFBFE99182
:1000FA00B991A9911895F8947894EA93FA93EFB77D
:10010A00EA93992061F09A94E82DF0E0E859FE4FBD
:10011A00E081ECB98394E8E0E81509F48824E991D0
:10012A00EFBFF991E9911895E8E0E915E9F3F89438
:10013A00992011F45D990DC0A72DB0E0A859BE4FC2
:10014A00E881EC937394E8E0E71509F47724939433
:10015A0002C0E881ECB9789421960895E0E0EBBBFF
:10016A00EABBE8BBE7BBE5BBE4BBE2BBE1BBE3BF81
:10017A00E2BFECBFEFBDEEBDEDBDECBDE7BDE6BD38
:10018A00EBBDEABDE9BDE8BDE2BDE5BDE4BDE3BD49
:10019A00E5BFE4BFE9BFEBB9E8EDEAB9E6E8E0BDDF
:1001AA00E0E0E0BDE9E1E9B9E0E8E8B9E0E0E0BFB4
:1001BA007894E1E4EA93B8DFE4E6F0E0FA93EA93AC
:1001CA000E94E900F6CFFFCFE991F991309639F014
:1001DA0088EE93E00197F1F7A8953197C9F708954A
:00000001FF
