:0C0000000C9431000C9461000C94000082
:10000C000C9400000C9400000C9400000C94000064
:10001C000C9400000C9400000C9400000C94000054
:10002C000C9400000C9400000C9400000C94000044
:10003C000C9400000C9400000C9400000C94000034
:10004C000C9400000C94000080C0503E0000020094
:10005C00600154000000F894EE27ECBBF1E0FBBF0C
:10006C00EBBFE5BFF8E1F1BDE1BD8DE0A2E0BB2740
:10007C00ED938A95E9F780E094E0A0E6ED93019783
:10008C00E9F7EAE5F0E085919591009761F0A5918B
:10009C00B59105901590BF01F00105900D92019757
:1000AC00E1F7FB01F0CFEFE5EDBFE4E0EEBFC0E61A
:1000BC00D1E00C9462001895E0E0EBBBEABBE8BB26
:1000CC00E7BBE5BBE4BBE2BBE1BBE3BFE2BFECBF1C
:1000DC00EFBDEEBDEDBDECBDE7BDE6BDEBBDEABDD4
:1000EC00E9BDE8BDE2BDE5BDE4BDE3BDEBB7E06451
:1000FC00EBBFE2E0E5BFE0E0E4BFE0E4EABFE0E054
:10010C00E9BFE0E8E8B9E0E0E0BFE4E1EA930E948F
:10011C0027010E94E200E6E5F0E0FA93EA930E94E0
:10012C000C017894FFCFFFCFA7B3AF70A7BBC19AD8
:10013C00C09811D0C29A0FD0A6B3C2980CD0C29A54
:10014C000AD0C298A7FDF5CF0895A07FAB2BA8BB12
:10015C00C29A01D0C298FFE0FA95F1F70895C198C0
:10016C00A7B3A76FA7BBB8B3BF70A881EEDFA881F8
:10017C00A295EBDFC19A21960895C29AECDFE6B303
:10018C00C298E9DFE07F0895E6DFF7DFAE2FF5DFF9
:10019C00C198E295EA2B08950E949A00E881F0E05C
:1001AC00E05AFE4FE081A981EA0FEA930E94B50064
:1001BC0049805880229608950E949A00E2E00E949D
:1001CC005E01ECE00E945E01E1E0EA930E94B50062
:1001DC00E0E05E2E4E2E0895EF93FF93A881689475
:1001EC00AA3021F0E8944394641438F45394E0E07A
:1001FC00EA935A920E94D2002EF096DFC09AA88100
:10020C00AA93ADDFFF91EF9121960895E881F981D2
:10021C00C895002021F031960A92DEDFF9CF2296A4
:10022C000895AA27BB271197F1F70895C198A7B392
:10023C00A76FA7BBB8B3BF70A88187DFC19A2196FF
:10024C000895C298C0986880E881E058E0936201F4
:10025C00E881E054E09363010E9463010E94630112
:10026C000E9463010E941701E0E2EA930E941C01C4
:10027C000E941701E8E20E946901E4E00E94690112
:10028C00E5E80E946901A7B3AF70A7BBC19A0E94B1
:10029C00CA00E53011F0E0E009C00E949A00E6E0E7
:1002AC00EA930E94B5000E94E200E1E021960895D5
:1002BC00EA930E94B5000C949A000E941701E0E3A7
:1002CC00EA930C941C01EA930E94B5000C9417015C
:00000001FF
