:060000000C94B7000C9403
:10000600E7000C9400000C9400000C9400000C9483
:1000160000000C9400000C9400000C9400000C945A
:1000260000000C9400000C9400000C9400000C944A
:1000360000000C9400000C9400000C9400000C943A
:1000460000000C9400000C9400000C9400000D09B4
:100056000E7C157116311A7A1B731C611D771E32C0
:1000660021632278236424652534263329202A76C1
:100076002B662C742D722E35316E326233683467DE
:1000860035793636392C3A6D3B6A3C753D373E3804
:10009600412C426B4369446F45304639492E4A2DFF
:1000A6004B6C4CF84D704E2B52E654E555315A0DBB
:1000B6005BA85D5C613C660869316B346C377030F7
:1000C600712C7232733574367538792B7A337B2DF1
:1000D6007C2A7D3900000D090EA7155116211A5AE2
:1000E6001B531C411D571E222143225823442445DD
:1000F60025A4262329202A562B462C542D522E255C
:10010600314E32423348344735593626394C3A4D0A
:100116003B4A3C553D2F3E28413B424B4349444FC9
:10012600453D4629493A4A5F4B4C4CD84D504E3FC7
:1001360052C654C555605A0D5B5E5D2A613E66081F
:1001460069316B346C377030712C7232733574369A
:100156007538792B7A337B2D7C2A7D39000080C057
:100166000200B80164010000F894EE27ECBBF1E050
:10017600FBBFEBBFE5BFF8E1F1BDE1BD8DE0A2E05D
:10018600BB27ED938A95E9F780E094E0A0E6ED932E
:100196000197E9F7E6E6F1E085919591009761F020
:1001A600A591B59105901590BF01F00105900D92AE
:1001B6000197E1F7FB01F0CFEFE5EDBFE4E0EEBF1D
:1001C600C0E6D1E00C9426010A921A92FA926A933A
:1001D6007A938A939A93AA93BA93EA93FA93EFB788
:1001E600EA934420C1F4EBE05E1618F4E2E0E5156C
:1001F60008F00CC0E091B401E695E093B401989B39
:1002060005C0E091B401E068E093B401E3E0E5BF26
:10021600E1E04E2E0AC00E942A035A9431F4E0917E
:10022600B401EA9369D0EBE05E2EE991EFBFF99154
:10023600E991B991A9919991899179916991F990E9
:100246001990099018952A97E0E0EBBBEABBE8BB4A
:10025600E7BBE5BBE4BBE2BBE1BBE3BFE2BFECBF90
:10026600EFBDEEBDEDBDECBDE7BDE6BDEBBDEABD48
:10027600E9BDE8BDE2BDE5BDE4BDE3BDEBB7E064C5
:10028600EBBFE2E0E5BFE0E0E4BFE0E4EABFE0E0C8
:10029600E9BFE0E8E8B9E0E0E0BFE4E1EA930E9404
:1002A600F2020E94A80200E0043140F4A02FB0E060
:1002B600A056BE4FE0E0EC930F5FF6CF0FD07894D8
:1002C600D0D01E2FE0E2E11710F4103808F003C07A
:1002D6001A930E94BA02F4CF2A96FFCFE0E6F1E025
:1002E6006E2E7F2EE0E6F1E08E2E9F2EAA240E942F
:1002F6002A03EBE05E2E08950A93E091B501E03003
:1003060011F00C94F401E981E03F21F4E1E0E0937F
:10031600B50166C0E23121F4E1E0E093B60160C0C8
:10032600E93521F4E1E0E093B6015AC0E53079F40D
:10033600E091B701E03019F4E1E0E093B701A09154
:10034600B701A23019F4E3E0E093B70149C0A091E8
:10035600B701A03019F0A33009F042C0E091B60110
:10036600E030D9F400E00E942E030E94380321F009
:100376000E942E03E03009F402C00F5FF4CF0E9402
:100386002E030E94380341F4A4E5B0E00E943C032A
:100396003196E491EA934DD023C000E0ACEDB0E095
:1003A6000E943C03E4910E94380339F0ACEDB0E0C2
:1003B6000E943C03E491E03009F402C00F5FEECFE7
:1003C600ACEDB0E00E943C03E4910E94380341F496
:1003D600ACEDB0E00E943C033196E491EA9329D05B
:1003E60025C0E0E0E093B501E981E23121F4E0E0E7
:1003F600E093B6011BC0E93521F4E0E0E093B601D5
:1004060015C0E53079F4A091B701A13019F4E2E006
:10041600E093B701A091B701A33019F4E0E0E093AF
:10042600B70104C0E63011F40E94A80208812296A2
:100436000895E0E4AE1698F4E881A62DB72DEC9366
:10044600E62DF72D31966E2E7F2EA394E0EAF1E08D
:100456006E167F0620F0E0E6F1E06E2E7F2E2196E6
:1004660008951A930A93AA20F1F3A82DB92DEC91B9
:10047600F0E00E2F1F2FE82DF92D31968E2E9F2E90
:10048600E0EAF1E08E169F0620F0E0E6F1E08E2E1F
:100496009F2EAA94E02FF12F0991199108955F9B41
:1004A600FECFECB108955D9BFECFE881ECB92196B5
:1004B6000895A7B3AF70A7BBC19AC09811D0C29ACE
:1004C6000FD0A6B3C2980CD0C29A0AD0C298A7FD84
:1004D600F5CF0895A07FAB2BA8BBC29A01D0C298D6
:1004E600FFE0FA95F1F70895C198A7B3A76FA7BBE8
:1004F600B8B3BF70A881EEDFA881A295EBDFC19AE1
:1005060021960895C29AECDFE6B3C298E9DFE07F50
:100516000895E6DFF7DFAE2FF5DFC198E295EA2B07
:1005260008950E945C02E881F0E0E854FE4FE08105
:10053600A981EA0FEA930E947702E981E093BC0160
:10054600E881E093BD01229608950E945C02E2E0F4
:100556000E944303ECE00E944303E1E0EA930E9419
:100566007702E0E0E093BD01E093BC010895EF93CC
:10057600FF93A8816894AA3061F0E894E091BC01E9
:10058600EF5FE093BC01E091BE01A091BC01EA17C8
:1005960068F4E091BD01EF5FE093BD01E0E0EA930E
:1005A600E091BD01EA930E9494022EF082DFC09A88
:1005B600A881AA9399DFFF91EF9121960895AA2722
:1005C600BB271197F1F70895C198A7B3A76FA7BBEB
:1005D600B8B3BF70A8817EDFC19A21960895C298EC
:1005E600C098E881E093BE01E058E093BA01E88143
:1005F600E054E093BB010E9448030E9448030E9416
:1006060048030E94E202E0E2EA930E94E7020E94A7
:10061600E202E8E20E944E03E4E00E944E03E5E8AF
:100626000E944E03A7B3AF70A7BBC19A0E948C026B
:10063600E53011F0E0E009C00E945C02E6E0EA93D2
:100646000E9477020E94A802E1E021960895E2E066
:10065600E5BF44240895A4E5B0E0E02FF0E0EE0FF6
:10066600FF1FEA0FFB1FE4910895AE2FE981EA17F9
:100676000895E02FF0E0EE0FFF1FEA0FFB1F08952D
:10068600EA930E9477020C945C020E94E202E0E385
:10069600EA930C94E702EA930E9477020C94E20232
:00000001FF
