:100000000C9442000C9400000C9400000C9400002E
:100010000C9400000C9400000C9400000C94000060
:100020000C9400000C9400000C9400000C94000050
:100030000C9400000C9400000C9400000C94000040
:100040000C9400000C9400000C9400000C94000030
:100050000C9400001027E80364000A00010000105F
:1000600000011000010080C054696D65203D20250D
:1000700032643A2532643A2532640000020060019D
:1000800066000000F894EE27ECBBF1E0FBBFEBBF8D
:10009000E5BFF8E1F1BDE1BD8DE0A2E0BB27ED9346
:1000A0008A95E9F780E094E0A0E6ED930197E9F7FF
:1000B000ECE7F0E085919591009761F0A591B591FD
:1000C00005901590BF01F00105900D920197E1F7A1
:1000D000FB01F0CFEFE5EDBFE4E0EEBFC0E6D1E01D
:1000E0000C947200A297E0E0EBBBEABBE8BBE7BB75
:1000F000E5BBE4BBE2BBE1BBE3BFE2BFECBFEFBDEE
:10010000EEBDEDBDECBDE7BDE6BDEBBDEABDE9BDB5
:10011000E8BDE2BDE5BDE4BDE3BDE5BFE4BFE9BFC9
:10012000E0E8E8B9E0E0E0BFE1B9E0E2E0B9E4E04E
:10013000E6BFE4E1EA930E94F003E5E0EF83E2E248
:10014000E887EDE0E987E5E0EA87E3E1EB87E3E0D4
:10015000EC87DE011D96E8EDF7E0EC93FE013796A3
:10016000A7E00E94DA04F2D02AD10E94AC03FE017B
:10017000FA93EA9384D0FE013E96FA93EA93E8E676
:10018000F0E0FA93EA93EE81FF27662777270E9433
:10019000D504E985FF27662777270E94D504EC85DB
:1001A000FF27662777270E94D5048CE00E943B0337
:1001B0006096E1E0EA93EA930E949C03FE013E967A
:1001C000FA93EA930E94D603E8EEF3E0FA93EA93F7
:1001D0000E94AA04CACFA296FFCF0A93E4EAE6BF20
:1001E000E6B7E078E9F30E942704083011F0003107
:1001F00009F401C0F3CFECC00A93E981E3B9E4E864
:10020000E6BFE6B7E078E9F30E942704E02F088113
:100210009BC00A93EB81E295E07FEE0FEE0FEE0FAD
:10022000E468E6BFE6B7E078E9F30E942704A98115
:10023000BA810C93E3B1088124960895E4E9E6BFFE
:1002400008951A930A930E942B04EA81EA930E946C
:10025000FC000E94ED00E1EDEA930E94FC00E0E06A
:10026000EA93EDB7FEB7FA93EA931F930E94090150
:100270001F910E2F0E941E01E02F198156C00E946F
:100280003104E02FEF70EF930E943804AF91EA0F32
:10029000A981BA81EC93E1E00E944004EF930E94AF
:1002A0003804AF91EA0FA981BA811196EC93E2E08C
:1002B0000E944004EF930E944704AF91EA0FA98186
:1002C000BA811296EC93E3E00E944F04E02FA981DB
:1002D000BA811396EC93E4E00E944004EF930E94ED
:1002E0004704AF91EA0FA981BA811496EC93E5E037
:1002F0000E944004EF93E02FE295E1700E945404C5
:10030000AF91EA0FA981BA811596EC93E6E00E94BD
:100310004004EF93E02FE295EF700E945404AF91F8
:10032000EA0FA981BA811696EC9308812396089565
:100330000E942B04E981EA930E94FC00E881EA9381
:100340000E94FC000E941E01229608950E94310422
:10035000E0E0EA93EA81EA930E94B604EF93E02F8B
:10036000E078AF910E945904E1E0EA93EB810E94AA
:100370005D04E0E00E944F04E2E0EA93EC81EA933E
:100380000E94B604EF93E02FE07CAF910E945904E5
:10039000E3E0EA93ED810E945D04E4E0EA93EE81FC
:1003A0000E945D04E5E0EA93EF810E945D04E6E0CF
:1003B000EA93E8850E945D040881289608950E94CA
:1003C0003104E0E0EA93E02FEF77EA930E9498018E
:1003D000099108955F9BFECFECB108955D9BFECF20
:1003E000E881ECB921960895A881B9810E94C704DB
:1003F000309751F00E94C7043196ED93FC933197EA
:10040000DF01EA81EC9304C0EA81EA930E94EE01E5
:100410002396089526970E94E20400E0E889F9896E
:100420003196E88BF98B3197E4913E2FE03011F44F
:100430000C943703E02FE03039F4353211F401E049
:1004400002C00E94630412C1E130B1F4353221F4DC
:100450000E94630400E00AC102E050E010E03D3277
:1004600011F411E003C13B3211F45BE2FFC0303202
:1004700011F450E2FBC002C0E23039F440E003E086
:10048000303311F41068F2C004C0E33011F00C9462
:100490003603303310F03A3308F009C0A42FEAE0F5
:1004A000EA9FE02D4E2FE32FE0534E0FDFC0E32FE6
:1004B000E33631F40E946A04EC910E947104D5C0C5
:1004C000E33741F40E946A040E9478040E94950474
:1004D0000E2F0AC0E03761F40E946A040E9478047B
:1004E0000E949F040E2F186012601F7720E038C012
:1004F000E43611F0E93611F4146002C0E53731F446
:10050000E4E5F0E0EE83FF8305E00DC0E83511F48B
:10051000186004C0E83711F00C943503EEE5F0E004
:10052000EE83FF8304E012FF15C00E946A040E945C
:10053000C704EA87FB87AA85BB8510972CF40E9425
:10054000C304EA87FB875DE2503011F00F5F01C002
:100550001B7F06C00E946A040E94C704EA87FB87CB
:1005600010FD11C0041778F417FF08C012FF04C073
:100570001B7F352F015001C030E301C030E20E94E3
:1005800063044150EFCF202F11FF1AC02030B9F083
:1005900013FF08C0EE81FF813196EE83FF83319710
:1005A000E49105C0AE81BF81ED91AE83BF83EA9334
:1005B0000E947F04403009F041502150E7CF4CC0E9
:1005C00030E3EE81FF813296EE83FF8332970E9403
:1005D000D104E887F987AA85BB85AE17BF0720F04D
:1005E0003F5FAE1BBF0BC9F7AA87BB87E9E3E317E1
:1005F00028F413FF02C0395F01C0395D14FD1EC02D
:10060000E0E3E31730F0A885B985A130E0E0BE074C
:1006100011F410610AC0421710F010FF01C013C09E
:1006200030E217FF0BC030E3106112FF07C01B7FE1
:100630005A930E947F04403009F041500E946304A5
:10064000403009F041502150A885B985E1E0F0E043
:10065000EA17FB0708F4B4CF10FF07C0403029F0B9
:100660004150E0E20E947104F9CF00E0D7CE0E9431
:10067000E90462960895F82E22971A930A93DE01F0
:100680000E94BF040A2F1B2FDE0116960E94BF0492
:100690000E94C704EA83FB83DE0114960E94BF0414
:1006A0000E94C704FA93EA931A930A93FE013696BE
:1006B000FA93EA930E940A02AA81BB81E0E0EC93DC
:1006C0001981088124960895A7B3AF70A7BBC19A7A
:1006D000C09811D0C29A0FD0A6B3C2980CD0C29ABB
:1006E0000AD0C298A7FDF5CF0895A07FAB2BA8BB79
:1006F000C29A01D0C298FFE0FA95F1F70895C19827
:10070000A7B3A76FA7BBB8B3BF70A881EEDFA8815E
:10071000A295EBDFC19A21960895C29AECDFE6B369
:10072000C298E9DFE07F0895E6DFF7DFAE2FF5DF5F
:10073000C198E295EA2B08950E946403E881F0E0F5
:10074000E05AFE4FE081A981EA0FEA930E947F03FD
:1007500049805880229608950E946403E2E00E9436
:100760008504ECE00E948504E1E0EA930E947F03A7
:10077000E0E05E2E4E2E0895EF93FF93A8816894DB
:10078000AA3021F0E8944394641438F45394E0E0E0
:10079000EA935A920E949C032EF096DFC09AA88199
:1007A000AA93ADDFFF91EF9121960895F981E88139
:1007B000A191AA2319F0AA93DFDFFACF2296089518
:1007C000AA27BB271197F1F70895C198A7B3A76F80
:1007D000A7BBB8B3BF70A88188DFC19A21960895DE
:1007E000C298C0986880E881E058E0936201E8818F
:1007F000E054E09363010E948A040E948A040E94EC
:100800008A040E94E003E0E2EA930E94E5030E946A
:10081000E003E8E20E949004E4E00E949004E5E82E
:100820000E949004A7B3AF70A7BBC19A0E94940323
:10083000E53011F0E0E009C00E946403E6E0EA93CD
:100840000E947F030E94AC03E1E021960895E1B18C
:10085000E87F0E2F08950E94ED00E0EDEA930C94DE
:10086000FC000A93E0E0EA930E9421010E2F089514
:10087000E02FE295EF70AE2FEAE0EA9FE02D0895B9
:10088000EA930E9421010E2FE02FEF700895E02FD0
:10089000E295E370AE2FEAE0EA9FE02D0895EA9337
:1008A0000E9421010E2F0895AE2FEAE0EA9FE02D6D
:1008B0000895EA2BEA930C949801EA930E94B604F7
:1008C000EA930C9498013A93ED85FE85FA93EA93A6
:1008D0000C94F401AE85BF851497AE87BF8714963C
:1008E0000895EA93ED85FE85FA93EA930C94F4015A
:1008F0000E94CB04EE83FF83FA93EA930895ED857B
:10090000FE85FA93EA930C94F401EA930E947F0324
:100910000C9464030E94E003E0E3EA930C94E50383
:10092000EA930E947F030C94E003A991B991EE270A
:10093000FF276D91662311F03196FBCF0895AA270A
:10094000BB27E991F9910590002011F01196FBCF9A
:10095000FD010895E991F991309639F088EE93E020
:100960000197F1F7A8953197C9F70895A991EE2756
:10097000AA5012F0E05FFCCFA65FEA0F08950024B2
:10098000AF0DB01D0895E095F09531960895ED9165
:10099000FC9111970895ED91FD916D917C911397C4
:1009A00008950590F491E02D08957A936A93FA934F
:1009B000EA930895BB27EA0FFB1F02900A92119752
:1009C000E1F708955A934A933A932A931A930A9314
:1009D00008955D814C813B812A81198108810895A8
:00000001FF
