:080000000C9436000C94000082
:100008000C9400000C9400000C9400000C94000068
:100018000C9400000C9400000C9400000C94000058
:100028000C9400000C9400000C9400000C94000048
:100038000C9400000C9400000C9400000C94000038
:100048000C9400000C9400000C94000080C04865DB
:100058006C6C6F20576F726C6421000002006001A5
:1000680054000000F894EE27ECBBF1E0FBBFEBBFB7
:10007800E5BFF8E1F1BDE1BD8DE0A2E0BB27ED935E
:100088008A95E9F780E094E0A0E6ED930197E9F717
:10009800E4E6F0E085919591009761F0A591B5911E
:1000A80005901590BF01F00105900D920197E1F7B9
:1000B800FB01F0CFEFE5EDBFE4E0EEBFC0E6D1E035
:1000C8000C946600E0E0EBBBEABBE8BBE7BBE5BB32
:1000D800E4BBE2BBE1BBE3BFE2BFECBFEFBDEEBDFB
:1000E800EDBDECBDE7BDE6BDEBBDEABDE9BDE8BDD4
:1000F800E2BDE5BDE4BDE3BDE5BFE4BFE9BFE0E8BF
:10010800E8B9E0E0E0BFE4E1EA930E942501E1E01C
:10011800EA93EA930E94D000E6E5F0E0FA93EA93C6
:100128000E940A01F4CFFFCFA7B3AF70A7BBC19A53
:10013800C09811D0C29A0FD0A6B3C2980CD0C29A58
:100148000AD0C298A7FDF5CF0895A07FAB2BA8BB16
:10015800C29A01D0C298FFE0FA95F1F70895C198C4
:10016800A7B3A76FA7BBB8B3BF70A881EEDFA881FC
:10017800A295EBDFC19A21960895C29AECDFE6B307
:10018800C298E9DFE07F0895E6DFF7DFAE2FF5DFFD
:10019800C198E295EA2B08950E949800E881F0E062
:1001A800E05AFE4FE081A981EA0FEA930E94B3006A
:1001B80049805880229608950E949800E2E00E94A3
:1001C8005C01ECE00E945C01E1E0EA930E94B3006C
:1001D800E0E05E2E4E2E0895EF93FF93A881689479
:1001E800AA3021F0E8944394641438F45394E0E07E
:1001F800EA935A920E94D0002EF096DFC09AA88106
:10020800AA93ADDFFF91EF9121960895E881F981D6
:10021800C895002021F031960A92DEDFF9CF2296A8
:100228000895AA27BB271197F1F70895C198A7B396
:10023800A76FA7BBB8B3BF70A88187DFC19A219603
:100248000895C298C0986880E881E058E0936201F8
:10025800E881E054E09363010E9461010E9461011A
:100268000E9461010E941501E0E2EA930E941A01CE
:100278000E941501E8E20E946701E4E00E9467011C
:10028800E5E80E946701A7B3AF70A7BBC19A0E94B7
:10029800C800E53011F0E0E009C00E949800E6E0EF
:1002A800EA930E94B3000E94E000E1E021960895DD
:1002B800EA930E94B3000C9498000E941501E0E3B1
:1002C800EA930C941A01EA930E94B3000C94150166
:00000001FF
